{
    "_format": "hh-sol-artifact-1",
    "contractName": "Trace",
    "sourceName": "contracts/Trace.sol",
    "abi": [
        {
            "inputs": [
                {
                    "internalType": "address",
                    "name": "_rph",
                    "type": "address"
                },
                {
                    "internalType": "address",
                    "name": "_distributor",
                    "type": "address"
                },
                {
                    "internalType": "address",
                    "name": "_rumahMakan",
                    "type": "address"
                }
            ],
            "stateMutability": "nonpayable",
            "type": "constructor"
        },
        {
            "anonymous": false,
            "inputs": [
                {
                    "indexed": true,
                    "internalType": "bytes32",
                    "name": "role",
                    "type": "bytes32"
                },
                {
                    "indexed": true,
                    "internalType": "bytes32",
                    "name": "previousAdminRole",
                    "type": "bytes32"
                },
                {
                    "indexed": true,
                    "internalType": "bytes32",
                    "name": "newAdminRole",
                    "type": "bytes32"
                }
            ],
            "name": "RoleAdminChanged",
            "type": "event"
        },
        {
            "anonymous": false,
            "inputs": [
                {
                    "indexed": true,
                    "internalType": "bytes32",
                    "name": "role",
                    "type": "bytes32"
                },
                {
                    "indexed": true,
                    "internalType": "address",
                    "name": "account",
                    "type": "address"
                },
                {
                    "indexed": true,
                    "internalType": "address",
                    "name": "sender",
                    "type": "address"
                }
            ],
            "name": "RoleGranted",
            "type": "event"
        },
        {
            "anonymous": false,
            "inputs": [
                {
                    "indexed": true,
                    "internalType": "bytes32",
                    "name": "role",
                    "type": "bytes32"
                },
                {
                    "indexed": true,
                    "internalType": "address",
                    "name": "account",
                    "type": "address"
                },
                {
                    "indexed": true,
                    "internalType": "address",
                    "name": "sender",
                    "type": "address"
                }
            ],
            "name": "RoleRevoked",
            "type": "event"
        },
        {
            "anonymous": false,
            "inputs": [
                {
                    "indexed": false,
                    "internalType": "string",
                    "name": "ID_Makanan",
                    "type": "string"
                },
                {
                    "indexed": false,
                    "internalType": "string",
                    "name": "ID_ProdukDistributor",
                    "type": "string"
                },
                {
                    "indexed": false,
                    "internalType": "string",
                    "name": "Akun_RumahMakan",
                    "type": "string"
                },
                {
                    "indexed": false,
                    "internalType": "string",
                    "name": "nama",
                    "type": "string"
                },
                {
                    "indexed": false,
                    "internalType": "string",
                    "name": "tanggal_pengolahan",
                    "type": "string"
                },
                {
                    "indexed": false,
                    "internalType": "bool",
                    "name": "status_kehalalan",
                    "type": "bool"
                },
                {
                    "indexed": false,
                    "internalType": "uint256",
                    "name": "date",
                    "type": "uint256"
                }
            ],
            "name": "TraceMakanan",
            "type": "event"
        },
        {
            "anonymous": false,
            "inputs": [
                {
                    "indexed": false,
                    "internalType": "string",
                    "name": "ID_Pemotongan",
                    "type": "string"
                },
                {
                    "indexed": false,
                    "internalType": "address",
                    "name": "Akun_RPH",
                    "type": "address"
                },
                {
                    "indexed": false,
                    "internalType": "string",
                    "name": "jenis_kelamin",
                    "type": "string"
                },
                {
                    "indexed": false,
                    "internalType": "string",
                    "name": "tanggal_pemotongan",
                    "type": "string"
                },
                {
                    "indexed": false,
                    "internalType": "bool",
                    "name": "status_kehalalan",
                    "type": "bool"
                },
                {
                    "indexed": false,
                    "internalType": "uint256",
                    "name": "date",
                    "type": "uint256"
                }
            ],
            "name": "TracePemotongan",
            "type": "event"
        },
        {
            "anonymous": false,
            "inputs": [
                {
                    "indexed": false,
                    "internalType": "string",
                    "name": "ID_ProdukDistributor",
                    "type": "string"
                },
                {
                    "indexed": false,
                    "internalType": "string",
                    "name": "ID_ProdukRPH",
                    "type": "string"
                },
                {
                    "indexed": false,
                    "internalType": "string",
                    "name": "Akun_Distributor",
                    "type": "string"
                },
                {
                    "indexed": false,
                    "internalType": "string",
                    "name": "nama",
                    "type": "string"
                },
                {
                    "indexed": false,
                    "internalType": "string",
                    "name": "durasi_penyimpanan",
                    "type": "string"
                },
                {
                    "indexed": false,
                    "internalType": "string",
                    "name": "waktu_pengiriman",
                    "type": "string"
                },
                {
                    "indexed": false,
                    "internalType": "string",
                    "name": "waktu_tiba",
                    "type": "string"
                },
                {
                    "indexed": false,
                    "internalType": "bool",
                    "name": "status_kehalalan",
                    "type": "bool"
                },
                {
                    "indexed": false,
                    "internalType": "uint256",
                    "name": "date",
                    "type": "uint256"
                }
            ],
            "name": "TraceProdukDistributor",
            "type": "event"
        },
        {
            "anonymous": false,
            "inputs": [
                {
                    "indexed": false,
                    "internalType": "string",
                    "name": "ID_ProdukRPH",
                    "type": "string"
                },
                {
                    "indexed": false,
                    "internalType": "string",
                    "name": "ID_Pemotongan",
                    "type": "string"
                },
                {
                    "indexed": false,
                    "internalType": "string",
                    "name": "nama",
                    "type": "string"
                },
                {
                    "indexed": false,
                    "internalType": "bool",
                    "name": "status_kehalalan",
                    "type": "bool"
                },
                {
                    "indexed": false,
                    "internalType": "uint256",
                    "name": "date",
                    "type": "uint256"
                }
            ],
            "name": "TraceProdukRPH",
            "type": "event"
        },
        {
            "inputs": [],
            "name": "DEFAULT_ADMIN_ROLE",
            "outputs": [
                {
                    "internalType": "bytes32",
                    "name": "",
                    "type": "bytes32"
                }
            ],
            "stateMutability": "view",
            "type": "function"
        },
        {
            "inputs": [],
            "name": "DISTRIBUTOR",
            "outputs": [
                {
                    "internalType": "bytes32",
                    "name": "",
                    "type": "bytes32"
                }
            ],
            "stateMutability": "view",
            "type": "function"
        },
        {
            "inputs": [],
            "name": "RPH",
            "outputs": [
                {
                    "internalType": "bytes32",
                    "name": "",
                    "type": "bytes32"
                }
            ],
            "stateMutability": "view",
            "type": "function"
        },
        {
            "inputs": [],
            "name": "RUMAH_MAKAN",
            "outputs": [
                {
                    "internalType": "bytes32",
                    "name": "",
                    "type": "bytes32"
                }
            ],
            "stateMutability": "view",
            "type": "function"
        },
        {
            "inputs": [
                {
                    "internalType": "bytes32",
                    "name": "role",
                    "type": "bytes32"
                }
            ],
            "name": "getRoleAdmin",
            "outputs": [
                {
                    "internalType": "bytes32",
                    "name": "",
                    "type": "bytes32"
                }
            ],
            "stateMutability": "view",
            "type": "function"
        },
        {
            "inputs": [
                {
                    "internalType": "bytes32",
                    "name": "role",
                    "type": "bytes32"
                },
                {
                    "internalType": "address",
                    "name": "account",
                    "type": "address"
                }
            ],
            "name": "grantRole",
            "outputs": [],
            "stateMutability": "nonpayable",
            "type": "function"
        },
        {
            "inputs": [
                {
                    "internalType": "bytes32",
                    "name": "role",
                    "type": "bytes32"
                },
                {
                    "internalType": "address",
                    "name": "account",
                    "type": "address"
                }
            ],
            "name": "hasRole",
            "outputs": [
                {
                    "internalType": "bool",
                    "name": "",
                    "type": "bool"
                }
            ],
            "stateMutability": "view",
            "type": "function"
        },
        {
            "inputs": [
                {
                    "internalType": "string",
                    "name": "_ID_ProdukDistributor",
                    "type": "string"
                },
                {
                    "internalType": "string",
                    "name": "_Akun_RumahMakan",
                    "type": "string"
                },
                {
                    "internalType": "string",
                    "name": "_nama",
                    "type": "string"
                },
                {
                    "internalType": "string",
                    "name": "_tanggal_pengolahan",
                    "type": "string"
                },
                {
                    "internalType": "bool",
                    "name": "_status_kehalalan",
                    "type": "bool"
                }
            ],
            "name": "inputMakanan",
            "outputs": [],
            "stateMutability": "nonpayable",
            "type": "function"
        },
        {
            "inputs": [
                {
                    "internalType": "string",
                    "name": "_jenis_kelamin",
                    "type": "string"
                },
                {
                    "internalType": "string",
                    "name": "_tanggal_pemotongan",
                    "type": "string"
                },
                {
                    "internalType": "bool",
                    "name": "_status_kehalalan",
                    "type": "bool"
                }
            ],
            "name": "inputPemotongan",
            "outputs": [],
            "stateMutability": "nonpayable",
            "type": "function"
        },
        {
            "inputs": [
                {
                    "internalType": "string",
                    "name": "_ID_ProdukRPH",
                    "type": "string"
                },
                {
                    "internalType": "string",
                    "name": "_Akun_Distributor",
                    "type": "string"
                },
                {
                    "internalType": "string",
                    "name": "_nama",
                    "type": "string"
                },
                {
                    "internalType": "string",
                    "name": "_durasi_penyimpanan",
                    "type": "string"
                },
                {
                    "internalType": "string",
                    "name": "_waktu_pengiriman",
                    "type": "string"
                },
                {
                    "internalType": "string",
                    "name": "_waktu_tiba",
                    "type": "string"
                },
                {
                    "internalType": "bool",
                    "name": "_status_kehalalan",
                    "type": "bool"
                }
            ],
            "name": "inputProdukDistributor",
            "outputs": [],
            "stateMutability": "nonpayable",
            "type": "function"
        },
        {
            "inputs": [
                {
                    "internalType": "string",
                    "name": "_ID_Pemotongan",
                    "type": "string"
                },
                {
                    "internalType": "string",
                    "name": "_nama",
                    "type": "string"
                },
                {
                    "internalType": "bool",
                    "name": "_status_kehalalan",
                    "type": "bool"
                }
            ],
            "name": "inputProdukRPH",
            "outputs": [],
            "stateMutability": "nonpayable",
            "type": "function"
        },
        {
            "inputs": [
                {
                    "internalType": "string",
                    "name": "",
                    "type": "string"
                }
            ],
            "name": "makanan",
            "outputs": [
                {
                    "internalType": "string",
                    "name": "ID",
                    "type": "string"
                },
                {
                    "internalType": "string",
                    "name": "ID_ProdukDistributor",
                    "type": "string"
                },
                {
                    "internalType": "string",
                    "name": "Akun_RumahMakan",
                    "type": "string"
                },
                {
                    "internalType": "string",
                    "name": "nama",
                    "type": "string"
                },
                {
                    "internalType": "string",
                    "name": "tanggal_pengolahan",
                    "type": "string"
                },
                {
                    "internalType": "bool",
                    "name": "status_kehalalan",
                    "type": "bool"
                },
                {
                    "internalType": "uint256",
                    "name": "date",
                    "type": "uint256"
                }
            ],
            "stateMutability": "view",
            "type": "function"
        },
        {
            "inputs": [
                {
                    "internalType": "string",
                    "name": "",
                    "type": "string"
                }
            ],
            "name": "pemotongan",
            "outputs": [
                {
                    "internalType": "string",
                    "name": "ID",
                    "type": "string"
                },
                {
                    "internalType": "address",
                    "name": "Akun_RPH",
                    "type": "address"
                },
                {
                    "internalType": "string",
                    "name": "jenis_kelamin",
                    "type": "string"
                },
                {
                    "internalType": "string",
                    "name": "tanggal_pemotongan",
                    "type": "string"
                },
                {
                    "internalType": "bool",
                    "name": "status_kehalalan",
                    "type": "bool"
                },
                {
                    "internalType": "uint256",
                    "name": "date",
                    "type": "uint256"
                }
            ],
            "stateMutability": "view",
            "type": "function"
        },
        {
            "inputs": [
                {
                    "internalType": "string",
                    "name": "",
                    "type": "string"
                }
            ],
            "name": "produkDistributor",
            "outputs": [
                {
                    "internalType": "string",
                    "name": "ID",
                    "type": "string"
                },
                {
                    "internalType": "string",
                    "name": "ID_ProdukRPH",
                    "type": "string"
                },
                {
                    "internalType": "string",
                    "name": "Akun_Distributor",
                    "type": "string"
                },
                {
                    "internalType": "string",
                    "name": "nama",
                    "type": "string"
                },
                {
                    "internalType": "string",
                    "name": "durasi_penyimpanan",
                    "type": "string"
                },
                {
                    "internalType": "string",
                    "name": "waktu_pengiriman",
                    "type": "string"
                },
                {
                    "internalType": "string",
                    "name": "waktu_tiba",
                    "type": "string"
                },
                {
                    "internalType": "bool",
                    "name": "status_kehalalan",
                    "type": "bool"
                },
                {
                    "internalType": "uint256",
                    "name": "date",
                    "type": "uint256"
                }
            ],
            "stateMutability": "view",
            "type": "function"
        },
        {
            "inputs": [
                {
                    "internalType": "string",
                    "name": "",
                    "type": "string"
                }
            ],
            "name": "produkRPH",
            "outputs": [
                {
                    "internalType": "string",
                    "name": "ID",
                    "type": "string"
                },
                {
                    "internalType": "string",
                    "name": "ID_Pemotongan",
                    "type": "string"
                },
                {
                    "internalType": "string",
                    "name": "nama",
                    "type": "string"
                },
                {
                    "internalType": "bool",
                    "name": "status_kehalalan",
                    "type": "bool"
                },
                {
                    "internalType": "uint256",
                    "name": "date",
                    "type": "uint256"
                }
            ],
            "stateMutability": "view",
            "type": "function"
        },
        {
            "inputs": [
                {
                    "internalType": "bytes32",
                    "name": "role",
                    "type": "bytes32"
                },
                {
                    "internalType": "address",
                    "name": "account",
                    "type": "address"
                }
            ],
            "name": "renounceRole",
            "outputs": [],
            "stateMutability": "nonpayable",
            "type": "function"
        },
        {
            "inputs": [
                {
                    "internalType": "bytes32",
                    "name": "role",
                    "type": "bytes32"
                },
                {
                    "internalType": "address",
                    "name": "account",
                    "type": "address"
                }
            ],
            "name": "revokeRole",
            "outputs": [],
            "stateMutability": "nonpayable",
            "type": "function"
        },
        {
            "inputs": [
                {
                    "internalType": "bytes4",
                    "name": "interfaceId",
                    "type": "bytes4"
                }
            ],
            "name": "supportsInterface",
            "outputs": [
                {
                    "internalType": "bool",
                    "name": "",
                    "type": "bool"
                }
            ],
            "stateMutability": "view",
            "type": "function"
        }
    ],
    "bytecode": "0x60806040523480156200001157600080fd5b5060405162002d1a38038062002d1a83398101604081905262000034916200019b565b62000041600033620000ce565b6200006d7f58bd82b5be4fe0ab9451464d252f5b165e247e7ccc04cb7f3c29168b9be6088b84620000ce565b620000997f85faced7bde13e1a7dad704b895f006e704f207617d68166b31ba2d79624862d83620000ce565b620000c57fa195f952fbc977b41b0dac4f26325301606d2789b6e6e1f593ea183a62e7a03382620000ce565b505050620001e5565b620000da8282620000de565b5050565b6000828152602081815260408083206001600160a01b038516845290915290205460ff16620000da576000828152602081815260408083206001600160a01b03851684529091529020805460ff191660011790556200013a3390565b6001600160a01b0316816001600160a01b0316837f2f8788117e7eff1d82e926ec794901d17c78024a50270940304540a733656f0d60405160405180910390a45050565b80516001600160a01b03811681146200019657600080fd5b919050565b600080600060608486031215620001b157600080fd5b620001bc846200017e565b9250620001cc602085016200017e565b9150620001dc604085016200017e565b90509250925092565b612b2580620001f56000396000f3fe608060405234801561001057600080fd5b50600436106101365760003560e01c806391d14854116100b2578063c4f646f711610081578063d547741f11610066578063d547741f14610313578063deac2e0514610326578063f813b6f01461034b57600080fd5b8063c4f646f7146102dc578063cbbbc63c1461030057600080fd5b806391d14854146102565780639c26149f1461029a578063a217fddf146102c1578063a533a000146102c957600080fd5b806336568abe1161010957806346727d1f116100ee57806346727d1f146102095780634bb4a00f1461021c5780634ce18e4a1461022f57600080fd5b806336568abe146101d05780633c009cd7146101e357600080fd5b806301ffc9a71461013b57806308919dc914610163578063248a9ca3146101985780632f2ff15d146101bb575b600080fd5b61014e61014936600461202b565b610373565b60405190151581526020015b60405180910390f35b61018a7f58bd82b5be4fe0ab9451464d252f5b165e247e7ccc04cb7f3c29168b9be6088b81565b60405190815260200161015a565b61018a6101a636600461206d565b60009081526020819052604090206001015490565b6101ce6101c9366004612086565b61040c565b005b6101ce6101de366004612086565b610436565b6101f66101f136600461218b565b6104ee565b60405161015a9796959493929190612218565b6101ce6102173660046122a5565b6107df565b6101ce61022a366004612363565b610a9b565b61018a7fa195f952fbc977b41b0dac4f26325301606d2789b6e6e1f593ea183a62e7a03381565b61014e610264366004612086565b60009182526020828152604080842073ffffffffffffffffffffffffffffffffffffffff93909316845291905290205460ff1690565b61018a7f85faced7bde13e1a7dad704b895f006e704f207617d68166b31ba2d79624862d81565b61018a600081565b6101ce6102d73660046123d7565b610cad565b6102ef6102ea36600461218b565b610fa7565b60405161015a9594939291906124de565b6101ce61030e366004612363565b61117c565b6101ce610321366004612086565b6113e7565b61033961033436600461218b565b61140c565b60405161015a9695949392919061252c565b61035e61035936600461218b565b611603565b60405161015a99989796959493929190612597565b60007fffffffff0000000000000000000000000000000000000000000000000000000082167f7965db0b00000000000000000000000000000000000000000000000000000000148061040657507f01ffc9a7000000000000000000000000000000000000000000000000000000007fffffffff000000000000000000000000000000000000000000000000000000008316145b92915050565b60008281526020819052604090206001015461042781611a10565b6104318383611a1d565b505050565b73ffffffffffffffffffffffffffffffffffffffff811633146104e0576040517f08c379a000000000000000000000000000000000000000000000000000000000815260206004820152602f60248201527f416363657373436f6e74726f6c3a2063616e206f6e6c792072656e6f756e636560448201527f20726f6c657320666f722073656c66000000000000000000000000000000000060648201526084015b60405180910390fd5b6104ea8282611aef565b5050565b80516020818301810180516008825292820191909301209152805481906105149061263d565b80601f01602080910402602001604051908101604052809291908181526020018280546105409061263d565b801561058d5780601f106105625761010080835404028352916020019161058d565b820191906000526020600020905b81548152906001019060200180831161057057829003601f168201915b5050505050908060010180546105a29061263d565b80601f01602080910402602001604051908101604052809291908181526020018280546105ce9061263d565b801561061b5780601f106105f05761010080835404028352916020019161061b565b820191906000526020600020905b8154815290600101906020018083116105fe57829003601f168201915b5050505050908060020180546106309061263d565b80601f016020809104026020016040519081016040528092919081815260200182805461065c9061263d565b80156106a95780601f1061067e576101008083540402835291602001916106a9565b820191906000526020600020905b81548152906001019060200180831161068c57829003601f168201915b5050505050908060030180546106be9061263d565b80601f01602080910402602001604051908101604052809291908181526020018280546106ea9061263d565b80156107375780601f1061070c57610100808354040283529160200191610737565b820191906000526020600020905b81548152906001019060200180831161071a57829003601f168201915b50505050509080600401805461074c9061263d565b80601f01602080910402602001604051908101604052809291908181526020018280546107789061263d565b80156107c55780601f1061079a576101008083540402835291602001916107c5565b820191906000526020600020905b8154815290600101906020018083116107a857829003601f168201915b505050506005830154600690930154919260ff1691905087565b7fa195f952fbc977b41b0dac4f26325301606d2789b6e6e1f593ea183a62e7a03361080981611a10565b604080516000815260208101918290525181209060079061082b908990612690565b90815260405160209181900382018120610847929091016126ac565b60405160208183030381529060405280519060200120036108c4576040517f08c379a000000000000000000000000000000000000000000000000000000000815260206004820152601f60248201527f446174612050726f64756b2052504820546964616b205465726461667461720060448201526064016104d7565b600182151514610930576040517f08c379a000000000000000000000000000000000000000000000000000000000815260206004820152601960248201527f5374617475732050726f64756b2068617275732068616c616c0000000000000060448201526064016104d7565b6004805490600061094083612751565b91905055506000610952600454611b88565b6040516020016109629190612789565b60405160208183030381529060405290506040518060e001604052808281526020018881526020018781526020018681526020018581526020018415158152602001428152506008826040516109b89190612690565b908152604051908190036020019020815181906109d5908261281c565b50602082015160018201906109ea908261281c565b50604082015160028201906109ff908261281c565b5060608201516003820190610a14908261281c565b5060808201516004820190610a29908261281c565b5060a082015160058201805460ff191691151591909117905560c0909101516006909101556040517fc2b5851b0b047d0c8e449dc9f8bb30330bde195f3d6803fac65513bc60e34a3890610a8a9083908a908a908a908a908a904290612218565b60405180910390a150505050505050565b7f58bd82b5be4fe0ab9451464d252f5b165e247e7ccc04cb7f3c29168b9be6088b610ac581611a10565b600182151514610b31576040517f08c379a000000000000000000000000000000000000000000000000000000000815260206004820152601960248201527f5374617475732050726f64756b2068617275732068616c616c0000000000000060448201526064016104d7565b60018054906000610b4183612751565b91905055506000610b53600154611b88565b604051602001610b639190612918565b60408051601f1981840301815260c0830182528083523360208401528282018890526060830187905285151560808401524260a08401529051909250600590610bad908490612690565b90815260405190819003602001902081518190610bca908261281c565b5060208201516001820180547fffffffffffffffffffffffff00000000000000000000000000000000000000001673ffffffffffffffffffffffffffffffffffffffff90921691909117905560408201516002820190610c2a908261281c565b5060608201516003820190610c3f908261281c565b50608082015160048201805460ff191691151591909117905560a0909101516005909101556040517f59c647b962ce839ce008141f7dded874b602f24e1c0a0c58b6a388cb0922e36290610c9e9083903390899089908990429061252c565b60405180910390a15050505050565b7f85faced7bde13e1a7dad704b895f006e704f207617d68166b31ba2d79624862d610cd781611a10565b6040805160008152602081019182905251812090600690610cf9908b90612690565b90815260405160209181900382018120610d15929091016126ac565b6040516020818303038152906040528051906020012003610d92576040517f08c379a000000000000000000000000000000000000000000000000000000000815260206004820152601f60248201527f446174612050726f64756b2052504820546964616b205465726461667461720060448201526064016104d7565b600182151514610dfe576040517f08c379a000000000000000000000000000000000000000000000000000000000815260206004820152601960248201527f5374617475732050726f64756b2068617275732068616c616c0000000000000060448201526064016104d7565b60038054906000610e0e83612751565b91905055506000610e20600354611b88565b604051602001610e30919061295d565b60405160208183030381529060405290506040518061012001604052808281526020018a8152602001898152602001888152602001878152602001868152602001858152602001841515815260200142815250600782604051610e939190612690565b90815260405190819003602001902081518190610eb0908261281c565b5060208201516001820190610ec5908261281c565b5060408201516002820190610eda908261281c565b5060608201516003820190610eef908261281c565b5060808201516004820190610f04908261281c565b5060a08201516005820190610f19908261281c565b5060c08201516006820190610f2e908261281c565b5060e082015160078201805460ff1916911515919091179055610100909101516008909101556040517f8f55721771703ac27792a6cd3cc856ea825ccf3e620370e510881c7672f17f1b90610f949083908c908c908c908c908c908c908c904290612597565b60405180910390a1505050505050505050565b8051602081830181018051600682529282019190930120915280548190610fcd9061263d565b80601f0160208091040260200160405190810160405280929190818152602001828054610ff99061263d565b80156110465780601f1061101b57610100808354040283529160200191611046565b820191906000526020600020905b81548152906001019060200180831161102957829003601f168201915b50505050509080600101805461105b9061263d565b80601f01602080910402602001604051908101604052809291908181526020018280546110879061263d565b80156110d45780601f106110a9576101008083540402835291602001916110d4565b820191906000526020600020905b8154815290600101906020018083116110b757829003601f168201915b5050505050908060020180546110e99061263d565b80601f01602080910402602001604051908101604052809291908181526020018280546111159061263d565b80156111625780601f1061113757610100808354040283529160200191611162565b820191906000526020600020905b81548152906001019060200180831161114557829003601f168201915b505050506003830154600490930154919260ff1691905085565b7f58bd82b5be4fe0ab9451464d252f5b165e247e7ccc04cb7f3c29168b9be6088b6111a681611a10565b60408051600081526020810191829052518120906005906111c8908790612690565b908152604051602091819003820181206111e4929091016126ac565b6040516020818303038152906040528051906020012003611261576040517f08c379a000000000000000000000000000000000000000000000000000000000815260206004820152601f60248201527f446174612050656d6f746f6e67616e20546964616b205465726461667461720060448201526064016104d7565b6001821515146112cd576040517f08c379a000000000000000000000000000000000000000000000000000000000815260206004820152601960248201527f5374617475732050726f64756b2068617275732068616c616c0000000000000060448201526064016104d7565b600280549060006112dd83612751565b919050555060006112ef600254611b88565b6040516020016112ff9190612995565b60408051601f1981840301815260a0830182528083526020830188905282820187905285151560608401524260808401529051909250600690611343908490612690565b90815260405190819003602001902081518190611360908261281c565b5060208201516001820190611375908261281c565b506040820151600282019061138a908261281c565b50606082015160038201805460ff19169115159190911790556080909101516004909101556040517f115579be9e63edb35ee99a10076b291d1d1ba2a29365eb0b99d9d157ba53591b90610c9e90839088908890889042906124de565b60008281526020819052604090206001015461140281611a10565b6104318383611aef565b80516020818301810180516005825292820191909301209152805481906114329061263d565b80601f016020809104026020016040519081016040528092919081815260200182805461145e9061263d565b80156114ab5780601f10611480576101008083540402835291602001916114ab565b820191906000526020600020905b81548152906001019060200180831161148e57829003601f168201915b5050506001840154600285018054949573ffffffffffffffffffffffffffffffffffffffff9092169491935091506114e29061263d565b80601f016020809104026020016040519081016040528092919081815260200182805461150e9061263d565b801561155b5780601f106115305761010080835404028352916020019161155b565b820191906000526020600020905b81548152906001019060200180831161153e57829003601f168201915b5050505050908060030180546115709061263d565b80601f016020809104026020016040519081016040528092919081815260200182805461159c9061263d565b80156115e95780601f106115be576101008083540402835291602001916115e9565b820191906000526020600020905b8154815290600101906020018083116115cc57829003601f168201915b505050506004830154600590930154919260ff1691905086565b80516020818301810180516007825292820191909301209152805481906116299061263d565b80601f01602080910402602001604051908101604052809291908181526020018280546116559061263d565b80156116a25780601f10611677576101008083540402835291602001916116a2565b820191906000526020600020905b81548152906001019060200180831161168557829003601f168201915b5050505050908060010180546116b79061263d565b80601f01602080910402602001604051908101604052809291908181526020018280546116e39061263d565b80156117305780601f1061170557610100808354040283529160200191611730565b820191906000526020600020905b81548152906001019060200180831161171357829003601f168201915b5050505050908060020180546117459061263d565b80601f01602080910402602001604051908101604052809291908181526020018280546117719061263d565b80156117be5780601f10611793576101008083540402835291602001916117be565b820191906000526020600020905b8154815290600101906020018083116117a157829003601f168201915b5050505050908060030180546117d39061263d565b80601f01602080910402602001604051908101604052809291908181526020018280546117ff9061263d565b801561184c5780601f106118215761010080835404028352916020019161184c565b820191906000526020600020905b81548152906001019060200180831161182f57829003601f168201915b5050505050908060040180546118619061263d565b80601f016020809104026020016040519081016040528092919081815260200182805461188d9061263d565b80156118da5780601f106118af576101008083540402835291602001916118da565b820191906000526020600020905b8154815290600101906020018083116118bd57829003601f168201915b5050505050908060050180546118ef9061263d565b80601f016020809104026020016040519081016040528092919081815260200182805461191b9061263d565b80156119685780601f1061193d57610100808354040283529160200191611968565b820191906000526020600020905b81548152906001019060200180831161194b57829003601f168201915b50505050509080600601805461197d9061263d565b80601f01602080910402602001604051908101604052809291908181526020018280546119a99061263d565b80156119f65780601f106119cb576101008083540402835291602001916119f6565b820191906000526020600020905b8154815290600101906020018083116119d957829003601f168201915b505050506007830154600890930154919260ff1691905089565b611a1a8133611c46565b50565b60008281526020818152604080832073ffffffffffffffffffffffffffffffffffffffff8516845290915290205460ff166104ea5760008281526020818152604080832073ffffffffffffffffffffffffffffffffffffffff851684529091529020805460ff19166001179055611a913390565b73ffffffffffffffffffffffffffffffffffffffff168173ffffffffffffffffffffffffffffffffffffffff16837f2f8788117e7eff1d82e926ec794901d17c78024a50270940304540a733656f0d60405160405180910390a45050565b60008281526020818152604080832073ffffffffffffffffffffffffffffffffffffffff8516845290915290205460ff16156104ea5760008281526020818152604080832073ffffffffffffffffffffffffffffffffffffffff85168085529252808320805460ff1916905551339285917ff6391f5c32d9c69d2a47ea670b442974b53935d1edc7fd64eb21e047a839171b9190a45050565b60606000611b9583611ce0565b600101905060008167ffffffffffffffff811115611bb557611bb56120cf565b6040519080825280601f01601f191660200182016040528015611bdf576020820181803683370190505b5090508181016020015b7fffffffffffffffffffffffffffffffffffffffffffffffffffffffffffffffff017f3031323334353637383961626364656600000000000000000000000000000000600a86061a8153600a8504945084611be957509392505050565b60008281526020818152604080832073ffffffffffffffffffffffffffffffffffffffff8516845290915290205460ff166104ea57611c8481611dc2565b611c8f836020611de1565b604051602001611ca09291906129cd565b60408051601f19818403018152908290527f08c379a00000000000000000000000000000000000000000000000000000000082526104d791600401612a4e565b6000807a184f03e93ff9f4daa797ed6e38ed64bf6a1f0100000000000000008310611d29577a184f03e93ff9f4daa797ed6e38ed64bf6a1f010000000000000000830492506040015b6d04ee2d6d415b85acef81000000008310611d55576d04ee2d6d415b85acef8100000000830492506020015b662386f26fc100008310611d7357662386f26fc10000830492506010015b6305f5e1008310611d8b576305f5e100830492506008015b6127108310611d9f57612710830492506004015b60648310611db1576064830492506002015b600a83106104065760010192915050565b606061040673ffffffffffffffffffffffffffffffffffffffff831660145b60606000611df0836002612a61565b611dfb906002612a78565b67ffffffffffffffff811115611e1357611e136120cf565b6040519080825280601f01601f191660200182016040528015611e3d576020820181803683370190505b5090507f300000000000000000000000000000000000000000000000000000000000000081600081518110611e7457611e74612a8b565b60200101907effffffffffffffffffffffffffffffffffffffffffffffffffffffffffffff1916908160001a9053507f780000000000000000000000000000000000000000000000000000000000000081600181518110611ed757611ed7612a8b565b60200101907effffffffffffffffffffffffffffffffffffffffffffffffffffffffffffff1916908160001a9053506000611f13846002612a61565b611f1e906001612a78565b90505b6001811115611fbb577f303132333435363738396162636465660000000000000000000000000000000085600f1660108110611f5f57611f5f612a8b565b1a60f81b828281518110611f7557611f75612a8b565b60200101907effffffffffffffffffffffffffffffffffffffffffffffffffffffffffffff1916908160001a90535060049490941c93611fb481612aba565b9050611f21565b508315612024576040517f08c379a000000000000000000000000000000000000000000000000000000000815260206004820181905260248201527f537472696e67733a20686578206c656e67746820696e73756666696369656e7460448201526064016104d7565b9392505050565b60006020828403121561203d57600080fd5b81357fffffffff000000000000000000000000000000000000000000000000000000008116811461202457600080fd5b60006020828403121561207f57600080fd5b5035919050565b6000806040838503121561209957600080fd5b82359150602083013573ffffffffffffffffffffffffffffffffffffffff811681146120c457600080fd5b809150509250929050565b7f4e487b7100000000000000000000000000000000000000000000000000000000600052604160045260246000fd5b600082601f83011261210f57600080fd5b813567ffffffffffffffff8082111561212a5761212a6120cf565b604051601f8301601f19908116603f01168101908282118183101715612152576121526120cf565b8160405283815286602085880101111561216b57600080fd5b836020870160208301376000602085830101528094505050505092915050565b60006020828403121561219d57600080fd5b813567ffffffffffffffff8111156121b457600080fd5b6121c0848285016120fe565b949350505050565b60005b838110156121e35781810151838201526020016121cb565b50506000910152565b600081518084526122048160208601602086016121c8565b601f01601f19169290920160200192915050565b60e08152600061222b60e083018a6121ec565b828103602084015261223d818a6121ec565b9050828103604084015261225181896121ec565b9050828103606084015261226581886121ec565b9050828103608084015261227981876121ec565b94151560a0840152505060c0015295945050505050565b803580151581146122a057600080fd5b919050565b600080600080600060a086880312156122bd57600080fd5b853567ffffffffffffffff808211156122d557600080fd5b6122e189838a016120fe565b965060208801359150808211156122f757600080fd5b61230389838a016120fe565b9550604088013591508082111561231957600080fd5b61232589838a016120fe565b9450606088013591508082111561233b57600080fd5b50612348888289016120fe565b92505061235760808701612290565b90509295509295909350565b60008060006060848603121561237857600080fd5b833567ffffffffffffffff8082111561239057600080fd5b61239c878388016120fe565b945060208601359150808211156123b257600080fd5b506123bf868287016120fe565b9250506123ce60408501612290565b90509250925092565b600080600080600080600060e0888a0312156123f257600080fd5b873567ffffffffffffffff8082111561240a57600080fd5b6124168b838c016120fe565b985060208a013591508082111561242c57600080fd5b6124388b838c016120fe565b975060408a013591508082111561244e57600080fd5b61245a8b838c016120fe565b965060608a013591508082111561247057600080fd5b61247c8b838c016120fe565b955060808a013591508082111561249257600080fd5b61249e8b838c016120fe565b945060a08a01359150808211156124b457600080fd5b506124c18a828b016120fe565b9250506124d060c08901612290565b905092959891949750929550565b60a0815260006124f160a08301886121ec565b828103602084015261250381886121ec565b9050828103604084015261251781876121ec565b94151560608401525050608001529392505050565b60c08152600061253f60c08301896121ec565b73ffffffffffffffffffffffffffffffffffffffff88166020840152828103604084015261256d81886121ec565b9050828103606084015261258181876121ec565b9415156080840152505060a00152949350505050565b60006101208083526125ab8184018d6121ec565b905082810360208401526125bf818c6121ec565b905082810360408401526125d3818b6121ec565b905082810360608401526125e7818a6121ec565b905082810360808401526125fb81896121ec565b905082810360a084015261260f81886121ec565b905082810360c084015261262381876121ec565b94151560e084015250506101000152979650505050505050565b600181811c9082168061265157607f821691505b60208210810361268a577f4e487b7100000000000000000000000000000000000000000000000000000000600052602260045260246000fd5b50919050565b600082516126a28184602087016121c8565b9190910192915050565b60008083546126ba8161263d565b600182811680156126d257600181146126e757612716565b60ff1984168752821515830287019450612716565b8760005260208060002060005b8581101561270d5781548a8201529084019082016126f4565b50505082870194505b50929695505050505050565b7f4e487b7100000000000000000000000000000000000000000000000000000000600052601160045260246000fd5b60007fffffffffffffffffffffffffffffffffffffffffffffffffffffffffffffffff820361278257612782612722565b5060010190565b7f4d4b4e00000000000000000000000000000000000000000000000000000000008152600082516127c18160038501602087016121c8565b9190910160030192915050565b601f82111561043157600081815260208120601f850160051c810160208610156127f55750805b601f850160051c820191505b8181101561281457828155600101612801565b505050505050565b815167ffffffffffffffff811115612836576128366120cf565b61284a81612844845461263d565b846127ce565b602080601f83116001811461289d57600084156128675750858301515b7fffffffffffffffffffffffffffffffffffffffffffffffffffffffffffffffff600386901b1c1916600185901b178555612814565b600085815260208120601f198616915b828110156128cc578886015182559484019460019091019084016128ad565b508582101561290857878501517fffffffffffffffffffffffffffffffffffffffffffffffffffffffffffffffff600388901b60f8161c191681555b5050505050600190811b01905550565b7f504d5447000000000000000000000000000000000000000000000000000000008152600082516129508160048501602087016121c8565b9190910160040192915050565b7f50445354000000000000000000000000000000000000000000000000000000008152600082516129508160048501602087016121c8565b7f50525048000000000000000000000000000000000000000000000000000000008152600082516129508160048501602087016121c8565b7f416363657373436f6e74726f6c3a206163636f756e7420000000000000000000815260008351612a058160178501602088016121c8565b7f206973206d697373696e6720726f6c65200000000000000000000000000000006017918401918201528351612a428160288401602088016121c8565b01602801949350505050565b60208152600061202460208301846121ec565b808202811582820484141761040657610406612722565b8082018082111561040657610406612722565b7f4e487b7100000000000000000000000000000000000000000000000000000000600052603260045260246000fd5b600081612ac957612ac9612722565b507fffffffffffffffffffffffffffffffffffffffffffffffffffffffffffffffff019056fea2646970667358221220813ca6bc568a31d268b63817d5f6fee2258b253c9c718641813fbcdfe017249264736f6c63430008120033",
    "linkReferences": {},
    "deployedLinkReferences": {}
}